:020000040800F2
:100000004804002001010008390100083B010008F4
:100010003F010008430100084701000800000000FC
:100020000000000000000000000000004B0100087C
:100030004D010008000000004F01000851010008B8
:100040001B0100081B0100081B0100081B01000820
:100050001B0100081B0100081B0100081B01000810
:100060001B0100081B0100081B0100081B01000800
:100070001B0100081B0100081B0100081B010008F0
:100080001B0100081B0100081B0100081B010008E0
:100090001B0100081B0100081B0100081B010008D0
:1000A0001B0100081B0100081B0100081B010008C0
:1000B0001B0100081B0100081B0100081B010008B0
:1000C0001B0100081B0100081B0100081B010008A0
:1000D0001B0100081B0100081B0100081B01000890
:1000E0001B0100081B0100081B010008DFF80CD0F1
:1000F00001F082F80048004725010008480400206C
:100100000648804706480047FEE7FEE7FEE7FEE7B1
:10011000FEE7FEE7FEE7FEE7FEE7FEE7E70F000883
:10012000ED00000800F0EEFF03E00248006801F077
:100130003AF8FAE700000020704700BFFEE700BF72
:10014000FEE700BFFEE700BFFEE77047704770475D
:100150007047000010B50446F748844208D10121D9
:10016000042000F00DFC0021042000F009FC46E012
:10017000F248844208D10121082000F001FC00214E
:10018000082000F0FDFB3AE0ED48844208D101214F
:10019000102000F0F5FB0021102000F0F1FB2EE014
:1001A000E848844208D10121202000F0E9FB002129
:1001B000202000F0E5FB22E0E348844208D1012141
:1001C000402000F0DDFB0021402000F0D9FB16E0CC
:1001D000DE48844208D10121802000F0D1FB0021BB
:1001E000802000F0CDFB0AE0D948844207D10121EC
:1001F000801500F0C5FB0021A01500F0C1FB10BD6B
:1002000010B50121084600F0BBFB0021012000F0E1
:10021000B7FB10BD2DE9F04102464FF0000C6546DA
:100220006646604663466446674691F803C00CF034
:100230000F0C654691F803C01CF0100F04D091F824
:1002400002C04CEA050C6546B1F800C01CF0FF0F77
:100250003FD0D2F800C064464FF0000C604635E055
:100260004FF0010C0CFA00FC6346B1F800C00CEA38
:10027000030C66469E4226D14FEA800C63464FF03F
:100280000F0C0CFA03FC674624EA070C644605FAD7
:1002900003FC4CEA040C644691F803C0BCF1280F3F
:1002A00006D14FF0010C0CFA00FCC2F814C00AE0B1
:1002B00091F803C0BCF1480F05D14FF0010C0CFAC6
:1002C00000FCC2F810C000F1010C60460828C7D33A
:1002D0001460B1F800C0BCF1FF0F44DDD2F804C0D7
:1002E00064464FF0000C60463AE000F1080C4FF015
:1002F000010808FA0CF84346B1F800C00CEA030CF8
:1003000066469E4229D14FEA800C63464FF00F0C9F
:100310000CFA03FC674624EA070C644605FA03FC62
:100320004CEA040C644691F803C0BCF1280F07D1D5
:1003300000F1080C4FF0010808FA0CF8C2F814801C
:1003400091F803C0BCF1480F07D100F1080C4FF041
:10035000010808FA0CF8C2F8108000F1010C6046A0
:100360000828C2D35460BDE8F0814FF6FF710180C8
:100370004FF0020181704FF00401C17070470246D6
:100380004FF00003184693680B4203D04FF001036F
:10039000184602E04FF0000318467047014688688F
:1003A00080B2704702464FF000031846D3680B42F4
:1003B00003D04FF00103184602E04FF00003184647
:1003C00070470146C86880B270470161704741615B
:1003D00070470AB1016100E041617047C160704738
:1003E0004FF480331A4642EA01031A468261816162
:1003F000826183691A4683691A46704702464FF044
:1004000000031846534B1B6818464FF6807300EAEA
:100410000303184640EA0213184640EA010318464F
:100420004C4B186070474C49C8617047F0B50A469C
:100430004FF00006334634463146354600F000465C
:10044000B6F1004F03D1434EF669314602E0414E0A
:1004500076683146C0F30346354686B2334600F42B
:100460004016B6F5401F09D121F070663146394E6D
:10047000766826F07066374F7E601CE000F48016C8
:10048000B6F5801F0BD14FF0030606FA05F6344689
:1004900021EA0406314641F0706631460BE04FEA2E
:1004A00050564FEA061603FA06F621EA06063146CA
:1004B00041F07066314642B14FEA50564FEA061697
:1004C00003FA06F646EA0106314600F00046B6F1A8
:1004D000004F02D11F4EF16101E01E4E7160F0BD70
:1004E00030B54FF000031A464FEA81734FEA137498
:1004F0004FF00F0303FA04F31A46184B4FEAA10416
:1005000053F8243023EA0203144C4FEAA10544F8BF
:10051000253023464FEAA10453F824304FEA817472
:100520004FEA147400FA04F443EA04030B4C4FEA54
:10053000A10544F8253030BD00080140000C014001
:10054000001001400014014000180140001C01404F
:10055000002001400000014000002042080001404E
:100560000149086070470000DC002042F84800683C
:1005700040F00100F649086008464068F54900EA85
:100580000100F349486008460068F34900EA0100A9
:10059000EF4908600846006820F48020086008469B
:1005A000406820F4FE0048604FF41F0088607047E8
:1005B000E749096821F48031E54A1160114609686C
:1005C00021F480211160B0F5803F03D0B0F5802F79
:1005D0000ED106E0DE49096841F48031DC4A116041
:1005E00007E0DB49096841F4A021D94A116000E025
:1005F00000BF00BF704710B501464FF0000422460F
:10060000234620464FEA61142246012A03D1D04CEA
:100610002468234608E0022A03D1CD4C246A2346ED
:1006200002E0CB4C646A234601F01F0422464FF0DF
:10063000010404FA02F41C4203D04FF001042046E6
:1006400002E04FF00004204610BD70B54FF00000EE
:1006500004460546064600BF3120FFF7CCFF06469C
:1006600004F101000446B4F5A06F01D0002EF3D0D0
:100670003120FFF7C0FF18B14FF00100054602E03E
:100680004FF000000546284670BD01464FF00002BD
:100690001046AF4A1268104620F0F802104640EAB1
:1006A000C1021046AA4A10607047AC490860704702
:1006B00002464FF000031846A54B5B68184620F42D
:1006C0007C13184642EA010343EA00031846A04B94
:1006D00058607047A1490866704701464FF0000214
:1006E00010469B4A5268104620F00302104640EA2A
:1006F00001021046964A506070479548406800F0E5
:100700000C00704701464FF000021046904A5268B4
:10071000104620F0F002104640EA010210468C4AD2
:100720005060704701464FF000021046884A5268F8
:10073000104620F4E062104640EA01021046844A66
:100740005060704701464FF000021046804A5268E0
:10075000104620F46052104640EAC10210467C4A1E
:100760005060704731B17A4A527A42EA0002784BBF
:100770005A7208E0764A527A6FEA0003DBB202EA64
:100780000302734B5A7270477549086070470146FF
:100790004FF0000210466E4A5268104620F4404264
:1007A000104640EA01021046694A506070474FF017
:1007B00000016C4A1170664A82F82010012802D0AC
:1007C00004280AD104E04FF00101664A117005E0E7
:1007D0004FF00501634A117000E000BF00BF704791
:1007E0006149086070475A49096A41EA0001584A5C
:1007F000116270475D490860704730B54FF00005E1
:1008000029462A462C462B46514D6D6805F00C05AD
:10081000294621B1042905D008292AD105E0544DE3
:10082000056029E0524D056026E0494D6D6805F4EC
:1008300070152A46464D6D6805F480352C464FF0FC
:10084000020505EB92452A4624B94A4D02FB05F5FF
:1008500005600DE03E4D6D6815F4003F04D0454D38
:1008600002FB05F5056003E0414D02FB05F505605F
:1008700002E03F4D056000BF00BF354D6D6805F0DB
:10088000F00529464FEA111529463B4D6D5C2B4674
:10089000056825FA03F545602D4D6D6805F4E065A2
:1008A00029464FEA11252946334D6D5C2B46456894
:1008B00025FA03F58560264D6D6805F460552946D7
:1008C0004FEAD12529462C4D6D5C2B46456825FA0B
:1008D00003F5C5601E4D6D6805F4404529464FEA95
:1008E00091352946254D6D5C2B46C568B5FBF3F562
:1008F000056130BD31B1164A526942EA0002144B1B
:100900005A6105E0124A526922EA0002104B5A610C
:10091000704731B10E4A926942EA00020C4B9A616B
:1009200005E00B4A926922EA0002094B9A6170477E
:1009300031B1074AD26942EA0002054BDA6105E0AB
:10094000034AD26922EA0002014BDA6170470000D3
:10095000001002400000FFF8FFFFF6FE00004242D8
:10096000D800424220100240800442423C044242ED
:1009700000127A0000093D0004000020140000204D
:1009800031B1204AD26842EA00021E4BDA6005E02B
:100990001C4AD26822EA00021A4BDA60704731B171
:1009A000184A126942EA0002164B1A6105E0154A1C
:1009B000126922EA0002134B1A617047124908605B
:1009C00070471249C86470470E49C87170470D4896
:1009D000406A40F080700B494862704701464FF012
:1009E00000021046074A92680A4203D04FF0010203
:1009F000104602E04FF0000210467047014988722D
:100A00007047000000100240400442420000424291
:100A100010B50446F748844209D101218803FFF745
:100A2000AFFF00214FF48040FFF7AAFF32E0F24809
:100A3000844209D101214804FFF7B1FF00214FF49E
:100A40000030FFF7ACFF25E0EC48844209D10121DA
:100A50008804FFF7A4FF00214FF48020FFF79FFFD9
:100A600018E0E748844209D10121C804FFF797FF45
:100A700000214FF40020FFF792FF0BE0E148844291
:100A800008D101210805FFF78AFF00214FF48010EB
:100A9000FFF785FF10BD2DE9F04786B005460E46ED
:100AA0004FF000000446824600BF81460746B089E9
:100AB00000B100BF2F46288A04464CF6FF7004EAB6
:100AC00000000446F08840EA040004462C82A8890D
:100AD00004464EF6F31004EA00000446B08831895B
:100AE00040EA0100718940EA010040EA040004463E
:100AF000AC81A88A04464FF6FF4004EA0000044691
:100B0000B08940EA04000446AC8201A8FFF775FEF4
:100B1000B848874202D10498824601E00398824691
:100B2000A88910F4004F09D00AEBCA0000EB0A10A4
:100B300031684FEA4101B0FBF1F808E00AEBCA0066
:100B400000EB0A1031684FEA8101B0FBF1F84FF079
:100B50006400B8FBF0F04FEA001004464FEA1410AE
:100B60004FF0640101FB10808146A88910F4004F0A
:100B70000BD04FF0320000EBC900B0FBF1F000F0F9
:100B8000070040EA040004460CE04FF0320000EB9E
:100B900009104FF06401B0FBF1F000F00F0040EAE3
:100BA000040004462C8106B0BDE8F0874FF41651CE
:100BB00001604FF000018180C18001814FF00C0184
:100BC00041814FF000018181704710B502464FF01E
:100BD00000031846138A18464FF2FF0300EA030386
:100BE00018460B884C8843EA04038C8843EA0403C4
:100BF000CC8843EA040343EA00031846108210BD80
:100C00004FF00001018041808180C180704721B197
:100C1000828942F40052828105E082894DF6FF7399
:100C200002EA030282817047F0B503464FF00007E5
:100C30003C463E463D463846A1F510676A3F00D126
:100C400000BF1846C1F342173C4601F01F073E465D
:100C50004FF0010707FA06F73D46012C03D100F1DA
:100C60000C07384608E0022C03D100F11007384683
:100C700002E000F11407384622B1076847EA050789
:100C8000076003E0076827EA05070760F0BD10B5B5
:100C900022B1838A43EA0103838206E0838A6FEAF2
:100CA0000104A4B203EA0403838210BD028A4FF652
:100CB000F07302EA03020282028A42EA010202821D
:100CC000704782894FF2FF7302EA030282818289B0
:100CD00042EA01028281704721B1828942F0020218
:100CE000828105E082894FF6FD7302EA0302828168
:100CF0007047028A4FF6DF7302EA03020282028A19
:100D000042EA01020282704721B1028A42F4804223
:100D1000028205E0028A4BF6FF7302EA03020282B6
:100D20007047C1F308028280704701468888C0F38B
:100D300008007047818941F0010181817047028B71
:100D4000D2B20283028B42EA012202837047028BF5
:100D500002F47F420283028B42EA0102028370475F
:100D600021B1828A42F02002828205E0828A4FF617
:100D7000DF7302EA03028282704721B1828A42F065
:100D80001002828205E0828A4FF6EF7302EA0302C4
:100D90008282704721B1828A42F00802828205E095
:100DA000828A4FF6F77302EA03028282704721B10A
:100DB000828942F40042828103E08289C2F30E02FA
:100DC0008281704721B1828A42F40062828205E00A
:100DD000828A4FF2FF7302EA030282827047828A9C
:100DE0004FF6FB7302EA03028282828A42EA010220
:100DF00082827047003801400044004000480040B3
:100E0000004C00400050004021B1828A42F00202B2
:100E1000828205E0828A4FF6FD7302EA0302828233
:100E2000704702464FF000031846B1F5007F00D12D
:100E300000BF13880B4203D04FF00103184602E0B5
:100E40004FF000031846704701F40072B2F5007FBE
:100E500000D100BF6FEA01020280704770B5024600
:100E60004FF000063446334635463046A1F510664D
:100E70006A3E00D100BFC1F34216354601F01F069D
:100E800033464FF0010606FA03F63346012D04D12E
:100E9000968906EA030633460AE0022D04D1168A33
:100EA00006EA0306334603E0968A06EA030633465B
:100EB0004FEA212634464FF0010606FA04F634467E
:100EC000168806EA0406344623B11CB14FF0010629
:100ED000304602E04FF00006304670BD10B54FF0CE
:100EE000000422462346A1F510646A3C00D100BFED
:100EF0004FEA212422464FF0010404FA02F4A4B27E
:100F000023466FEA0304048010BD00004FF0000286
:100F100011461046724A126842F48032704B1A60D1
:100F200000BF6F4A126802F40032104601F101025C
:100F3000114610B9B1F5A06FF3D1694A126812F4E5
:100F4000003F03D04FF00102104602E04FF00002D4
:100F50001046012842D1634A126842F01002614BE8
:100F60001A601A46126822F003021A601A461268C2
:100F700042F002021A605A4A5268594B5A601A46A5
:100F800052685A601A46526842F480625A601A46A1
:100F9000526822F47C125A601A46526842F4E812EF
:100FA0005A601A46126842F080721A6000BF4C4ABA
:100FB000126812F0007FFAD0494A526822F0030208
:100FC000474B5A601A46526842F002025A6000BF0C
:100FD000434A526802F00C02082AF9D1704710B552
:100FE000FFF794FF10BD10B53D48006840F00100C8
:100FF0003B490860084640683B4900EA010038491F
:10100000486008460068394900EA01003449086030
:101010000846006820F4802008600846406820F4F4
:10102000FE0048604FF41F008860FFF7D8FF4FF0C4
:1010300000602F49086010BD10B54FF0000319463D
:1010400018461A46264B5B6803F00C03194621B17B
:10105000042906D008292FD107E0264B264C23600F
:101060002EE0244B244C23602AE01D4B5B6803F4E4
:10107000701318461A4B5B6803F480331A464FF01E
:10108000020303EB904318462AB91C4B00FB03F301
:10109000194C23600FE0124B5B6813F4003F05D03E
:1010A000164B00FB03F3144C236004E0114B00FBD0
:1010B00003F3114C236003E00E4B0F4C236000BF81
:1010C00000BF074B5B68C3F303130D4CE35C194689
:1010D000094B1B6823FA01F3074C236010BD000085
:1010E00000100240002002400000FFF8FFFFF6FE63
:1010F00008ED00E000127A001800002000093D0011
:101100001C00002010B501210520FFF702FC012181
:101110004804FFF70DFC4FF00800324908804FF0FB
:101120000400C8703048FFF775F84FF004002D49EF
:1011300008804FF0030088704FF01800C8702A48EC
:10114000FFF768F84FF4E130284908604FF00000DD
:101150008880088188814FF00C0048814FF00000A2
:101160002349088048804FF4007088804FF00000C9
:10117000C8802048FFF729FD1C491E48FFF78BFC5B
:1011800001211C48FFF743FD10BD10B50446214660
:101190001848FFF7C6FD00BF80211648FFF741FE43
:1011A0000028F9D010BD10B504460DE02278601C6F
:1011B000044611460F48FFF7B4FD00BF80210D48DB
:1011C000FFF72FFE0028F9D020780028EED110BDBF
:1011D0004FF4FA71084600BF0100A0F10102104669
:1011E000FAD170472C000020000801403800002090
:1011F0003000002000440040064C074D06E0E06847
:1012000040F0010394E8070098471034AC42F6D34D
:10121000FEF770FF481200086812000802E008C8D4
:10122000121F08C1002AFAD170477047002001E060
:1012300001C1121F002AFBD1704748656C6C6F20FA
:10124000776F726C640A00006812000800000020CA
:10125000380000001C120008A0120008380000200E
:10126000100400002C1200083A12000800000000D0
:101270000102030401020304060708090204060828
:1012800000A24A0400000000000000000102030464
:101290000607080900000000000000000000000030
:04000005080000ED02
:00000001FF
